S011000050726F6A3D766572312E73726563BD
S11300000C9434000C943E000C943E000C943E007E
S11300100C943E000C943E000C943E000C943E0064
S11300200C943E000C943E000C943E000C943E0054
S11300300C943E000C943E000C943E000C943E0044
S11300400C943E000C943E000C943E000C943E0034
S11300500C943E000C943E000C943E000C943E0024
S11300600C943E000C943E0011241FBECFEFD8E048
S1130070DEBFCDBF0E944F010C9466010C940000BA
S11300808AB183608AB98BB183608BB984B186608D
S113009084B985B1866085B908959BB121E030E0CB
S11300A002C0220F331F8A95E2F7209529232BB92A
S11300B008959BB121E030E002C0220F331F8A95DE
S11300C0E2F7292B2BB983EC99E00197F1F700C0F3
S11300D00000089595B121E030E002C0220F331FE3
S11300E08A95E2F72095292325B9089595B121E051
S11300F030E002C0220F331F8A95E2F7292B25B97D
S113010083EC99E00197F1F700C000000895CF93C4
S1130110C82F0E94160182E50E9422018AE80E94EB
S113012022018C2F880F0E9422010E941E01CF9170
S1130130089580E00E944D0081E00E944D0081E01E
S11301400E946A0082E00E946A0080E00E945900D6
S113015080E30E94870080E00E944D0081E00E94BD
S1130160590081E30E94870081E00E944D0081E0F4
S11301700E94760082E30E94870081E00E946A0068
S113018082E00E94760083E30E94870082E00E945E
S11301906A0080E00E94590081E00E94590081E0D9
S11301A00E94760082E00E94760008951F93CF9308
S11301B0DF93C82F0E9416011C2F110F812F0E945C
S11301C022018EE10E9422010E9416018C2F90E0F0
S11301D0880F991FC82FC1608C2F0E9422010E9492
S11301E02C01D82F0E941601812F0E9422018FE139
S11301F00E9422010E9416018C2F0E9422010E945B
S11302003601C82F0E941E018D2F90E0982F882759
S11302108C2BDF91CF911F9108951092B9008CE03F
S11302208093B80084E08093BC00089584EA8093AE
S1130230BC008091BC008823E4F7089584E980938E
S1130240BC0008958093BB0084E88093BC00809137
S1130250BC008823E4F7089584EC8093BC0080916B
S1130260BC008823E4F78091BB00089584E8809360
S1130270BC008091BC008823E4F78091BB00089502
S113028087B18C7F87B90895409907C098B1892FA9
S1130290827091FF03C081E0089581E008950E9477
S11302A040010E940D010E9440000E94990080E3D9
S11302B00E94D60081E30E94D60082E30E94D60009
S11302C083E30E94D6000E944401F1CFF894FFCF4B
S9030000FC
