S011000050726F6A3D766572312E73726563BD
S11300000C9434000C9446000C9446000C94460066
S11300100C9446000C9446000C9446000C94460044
S11300200C9446000C9446000C9446000C94460034
S11300300C9446000C94F6000C9446000C94460074
S11300400C9446000C9446000C9446000C94460014
S11300500C9446000C9446000C9446000C94460004
S11300600C9446000C94460011241FBECFEFD8E038
S1130070DEBFCDBF21E0A0E0B1E001C01D92A930F8
S1130080B207E1F70E942A010C94EB010C940000E2
S11300909BB121E030E002C0220F331F8A95E2F7C2
S11300A0209529232BB908959BB121E030E002C0AB
S11300B0220F331F8A95E2F7292B2BB983EC99E0A1
S11300C00197F1F700C00000089595B121E030E0F8
S11300D002C0220F331F8A95E2F72095292325B900
S11300E0089595B121E030E002C0220F331F8A95B4
S11300F0E2F7292B25B983EC99E00197F1F700C0C9
S113010000000895CF93C82F0E94D10082E50E9479
S1130110DD008AE80E94DD008C2F880F0E94DD003C
S11301200E94D900CF91089580E00E94480081E0A8
S11301300E94480081E00E94650082E00E94650000
S113014080E00E94540080E30E94820080E00E94CC
S1130150480081E00E94540081E30E94820081E013
S11301600E94480081E00E94710082E30E948200A4
S113017081E00E94650082E00E94710083E30E9496
S1130180820082E00E94650080E00E94540081E0C9
S11301900E94540081E00E94710082E00E9471007C
S11301A0089584EA8093BC008091BC008823E4F71E
S11301B0089584E98093BC0008958093BB0084E88B
S11301C08093BC008091BC008823E4F7089587B134
S11301D08C7F87B90895309907C096B1892F8270B2
S11301E091FF03C081E0089581E008951F920F926A
S11301F00FB60F9211242F933F934F935F936F93F6
S11302007F938F939F93AF93BF93EF93FF930E943A
S1130210EB00811103C081E080930001FF91EF9115
S1130220BF91AF919F918F917F916F915F914F910A
S11302303F912F910F900FBE0F901F901895EFE6EE
S1130240F0E0808181608083E1E8F0E08081846077
S11302508083089578940E9490010E94E7000E9490
S113026094000E941F01809105019091060184363B
S1130270910538F080910701909108018436910529
S113028020F481E08093000119C0809101019091D4
S113029002018436910520F482E0809300010EC0AF
S11302A080910301909104018436910520F483E048
S11302B08093000103C084E08093000180910001D9
S11302C0833089F028F4813041F0823049F0CBCF7B
S11302D0843061F0853069F0C6CF0E94A901C3CF94
S11302E00E94CA01C0CF0E94B901BDCF0E94DB01A8
S11302F0BACF0E949901B7CF14BC15BC84B58360F2
S113030084BD85B5877F85BD85B5836085BD84B58E
S1130310806A84BD17BC18BC8AB180668AB9089506
S11303200E947C0187B18C6087B98AB180698AB9DF
S113033008958BB18F7E8BB98BB180688BB988B1EE
S11303408B7F88B988B1886088B98FEF87BD88BDF5
S113035008958BB180618BB98BB18F778BB988B1DC
S1130360846088B988B1877F88B98FEF87BD88BDDD
S113037008958BB180618BB98BB18F778BB988B1BC
S1130380846088B988B1877F88B980E887BD8FEF9A
S113039088BD08958BB180618BB98BB18F778BB990
S11303A088B1846088B988B1877F88B98FEF87BDA9
S11303B080E888BD08958BB18F7E8BB98BB180683E
S11303C08BB988B1846088B988B1877F88B98FEF89
S10D03D087BD88BD0895F894FFCF9F
S9030000FC
