:100000000C9434000C9446000C9446000C9446006A
:100010000C9446000C9446000C9446000C94460048
:100020000C9446000C9446000C9446000C94460038
:100030000C9446000C94F7000C9446000C94460077
:100040000C9446000C9446000C9446000C94460018
:100050000C9446000C9446000C9446000C94460008
:100060000C9446000C94460011241FBECFEFD8E03C
:10007000DEBFCDBF21E0A0E0B1E001C01D92A930FC
:10008000B207E1F70E942F010C94ED010C940000DF
:100090009BB121E030E002C0220F331F8A95E2F7C6
:1000A000209529232BB908959BB121E030E002C0AF
:1000B000220F331F8A95E2F7292B2BB983EC99E0A5
:1000C0000197F1F700C00000089595B121E030E0FC
:1000D00002C0220F331F8A95E2F72095292325B904
:1000E000089595B121E030E002C0220F331F8A95B8
:1000F000E2F7292B25B983EC99E00197F1F700C0CD
:1001000000000895CF93C82F0E94D10082E50E947D
:10011000DD008AE80E94DD008C2F880F0E94DD0040
:100120000E94D900CF91089580E00E94480081E0AC
:100130000E94480081E00E94650082E00E94650004
:1001400080E00E94540080E30E94820080E00E94D0
:10015000480081E00E94540081E30E94820081E017
:100160000E94480081E00E94710082E30E948200A8
:1001700081E00E94650082E00E94710083E30E949A
:10018000820082E00E94650080E00E94540081E0CD
:100190000E94540081E00E94710082E00E94710080
:1001A000089584EA8093BC008091BC008823E4F722
:1001B000089584E98093BC0008958093BB0084E88F
:1001C0008093BC008091BC008823E4F7089587B138
:1001D0008C7F87B9089596B1892F817090FD03C0F7
:1001E000319B03C0089580E0089581E008951F9237
:1001F0000F920FB60F9211242F933F934F935F935B
:100200006F937F938F939F93AF93BF93EF93FF93DE
:100210000E94EB00813021F485E08093000103C04F
:1002200081E080930001FF91EF91BF91AF919F9189
:100230008F917F916F915F914F913F912F910F908F
:100240000FBE0F901F901895EFE6F0E0808181605F
:100250008083E1E8F0E080818160808308950E94DE
:10026000240178940E944F010E94E7000E949400AC
:100270000E94AA01FDCF14BC15BC84B5836084BD67
:1002800085B5877F85BD85B5836085BD84B5806A6A
:1002900084BD17BC18BC8AB180668AB908950E94D3
:1002A0003B0187B18C6087B98AB180698AB90895AA
:1002B0008BB18F7E8BB98BB180688BB988B18B7F06
:1002C00088B988B1886088B98FEF87BD88BD0895E7
:1002D0008BB180618BB98BB18F778BB988B184601A
:1002E00088B988B1877F88B98FEF87BD88BD0895A9
:1002F0008BB180618BB98BB18F778BB988B18460FA
:1003000088B988B1877F88B980E887BD8FEF88BDBD
:1003100008958BB180618BB98BB18F778BB988B120
:10032000846088B988B1877F88B98FEF87BD80E8FE
:1003300088BD08958BB18F7E8BB98BB180688BB9E6
:1003400088B1846088B988B1877F88B98FEF87BD0D
:1003500088BD08950E9458012FEF89E698E1215049
:1003600080409040E1F700C000000E949A012FEF0A
:1003700081EE94E0215080409040E1F700C0000001
:100380000E9478012FEF89E698E12150804090404B
:10039000E1F700C000000E9489012FEF81EE94E098
:1003A000215080409040E1F700C000000E946801A9
:1003B0002FEF83ED90E3215080409040E1F700C0A3
:1003C000000018BC17BC2FEF81EE94E02150804054
:0E03D0009040E1F700C000000895F894FFCFC0
:00000001FF
