S011000050726F6A3D766572312E73726563BD
S11300000C9434000C9446000C9446000C94460066
S11300100C9446000C9446000C9446000C94460044
S11300200C9446000C9446000C9446000C94D100A9
S11300300C9446000C9446000C9446000C94460024
S11300400C9446000C9446000C9446000C94460014
S11300500C9446000C9446000C9446000C94460004
S11300600C9446000C94460011241FBECFEFD8E038
S1130070DEBFCDBF21E0A0E0B1E001C01D92A830F9
S1130080B207E1F70E94A9000C942A010C94000025
S11300901F93CF93DF93C82F0E947F001C2F110F53
S11300A0812F0E948B008EE10E948B000E947F00B2
S11300B08C2F90E0880F991FC82FC1608C2F0E944D
S11300C08B000E949500D82F0E947F00812F0E94F0
S11300D08B008FE10E948B000E947F008C2F0E9476
S11300E08B000E949F00C82F0E9487008D2F90E0F4
S11300F0982F88278C2BDF91CF911F91089584EA44
S11301008093BC008091BC008823E4F7089584E9BF
S11301108093BC0008958093BB0084E88093BC0066
S11301208091BC008823E4F7089584EC8093BC009C
S11301308091BC008823E4F78091BB00089584E893
S11301408093BC008091BC008823E4F78091BB00BD
S1130150089578940E94210188B1846088B988B197
S1130160877F88B98BB180618BB98BB18F778BB95D
S113017080E887BD88BD2FE73AE196E02150304002
S11301809040E1F700C000009FEF97BD88BD2FE7C6
S11301903AE186E0215030408040E1F700C00000A1
S11301A0E7CF1F920F920FB60F9211242F933F9314
S11301B04F935F936F937F938F939F93AF93BF936B
S11301C0EF93FF9380E30E9448009093050180938E
S11301D0040181E30E944800909307018093060183
S11301E082E30E944800909301018093000183E31D
S11301F00E9448009093030180930201FF91EF91C4
S1130200BF91AF919F918F917F916F915F914F912A
S11302103F912F910F900FBE0F901F90189584B5AA
S1130220836084BD85B5877F85BD85B5836085BDC5
S113023084B5806A84BD17BC18BC8AB180668AB94B
S113024008950E940F0187B18C6087B98AB18069D3
S10B02508AB90895F894FFCF68
S9030000FC
