S011000050726F6A3D766572312E73726563BD
S11300000C9434000C9446000C9446000C94460066
S11300100C9446000C9446000C9446000C94460044
S11300200C9446000C9446000C9446000C94670112
S11300300C9446000C9446000C9446000C94460024
S11300400C9446000C9446000C9446000C94460014
S11300500C9446000C9446000C9446000C94460004
S11300600C9446000C94460011241FBECFEFD8E038
S1130070DEBFCDBF21E0A0E0B1E001C01D92A930F8
S1130080B207E1F70E9441010C941F020C94000096
S11300909BB121E030E002C0220F331F8A95E2F7C2
S11300A0209529232BB908959BB121E030E002C0AB
S11300B0220F331F8A95E2F7292B2BB983EC99E0A1
S11300C00197F1F700C00000089595B121E030E0F8
S11300D002C0220F331F8A95E2F72095292325B900
S11300E0089595B121E030E002C0220F331F8A95B4
S11300F0E2F7292B25B983EC99E00197F1F700C0C9
S113010000000895CF93C82F0E94080182E50E9441
S113011014018AE80E9414018C2F880F0E94140194
S11301200E941001CF91089580E00E94480081E070
S11301300E94480081E00E94650082E00E94650000
S113014080E00E94540080E30E94820080E00E94CC
S1130150480081E00E94540081E30E94820081E013
S11301600E94480081E00E94710082E30E948200A4
S113017081E00E94650082E00E94710083E30E9496
S1130180820082E00E94650080E00E94540081E0C9
S11301900E94540081E00E94710082E00E9471007C
S11301A008951F93CF93DF93C82F0E9408011C2F3B
S11301B0110F812F0E9414018EE10E9414010E94EC
S11301C008018C2F90E0880F991FC82FC1608C2FD5
S11301D00E9414010E941E01D82F0E940801812F41
S11301E00E9414018FE10E9414010E9408018C2FC7
S11301F00E9414010E942801C82F0E9410018D2F13
S113020090E0982F88278C2BDF91CF911F91089530
S113021084EA8093BC008091BC008823E4F70895AD
S113022084E98093BC0008958093BB0084E88093A4
S1130230BC008091BC008823E4F7089584EC80938B
S1130240BC008091BC008823E4F78091BB00089532
S113025084E88093BC008091BC008823E4F78091FB
S1130260BB00089587B18C7F87B90895309907C082
S113027096B1892F827091FF03C081E0089581E0D7
S1130280089578940E94E4010E9432010E9494002F
S11302900E943601813011F40E94ED018091000129
S11302A0823061F018F4813031F0F2CF833049F0BC
S11302B0843051F0EDCF0E94FD01EACF0E940E027E
S11302C0E7CF0E940D02E4CF0E940F02E1CF1F92FC
S11302D00F920FB60F9211242F933F934F935F9376
S11302E06F937F938F939F93AF93BF93EF93FF93FA
S11302F080E30E94D100909306018093050181E37D
S11303000E94D100909308018093070182E30E9428
S1130310D100909302018093010183E30E94D100F4
S1130320909304018093030180910501909106014B
S11303308436910538F08091070190910801843644
S1130340910520F481E08093000119C0809101019E
S1130350909102018436910520F482E0809300019B
S11303600EC080910301909104018436910520F41C
S113037083E08093000103C084E080930001FF9137
S1130380EF91BF91AF919F918F917F916F915F9109
S11303904F913F912F910F900FBE0F901F90189582
S11303A014BC15BC84B5836084BD85B5877F85BDC9
S11303B085B5836085BD84B5806A84BD17BC18BCCF
S11303C08AB180668AB908950E94D00187B18C6091
S11303D087B98AB180698AB908958BB18F7E8BB948
S11303E08BB180688BB988B18B7F88B988B18860FC
S11303F088B98FEF87BD88BD08958BB180618BB9B3
S11304008BB18F778BB988B1846088B988B1877FC5
S113041088B98FEF87BD88BD0895089508958BB17D
S11304208F7E8BB98BB180688BB988B1846088B9B1
S113043088B1877F88B98FEF87BD88BD0895F89408
S1050440FFCFE8
S9030000FC
